{
  "contractName": "Rebase",
  "abi": [
    {
      "anonymous": false,
      "inputs": [
        {
          "indexed": true,
          "internalType": "address",
          "name": "owner",
          "type": "address"
        },
        {
          "indexed": true,
          "internalType": "address",
          "name": "spender",
          "type": "address"
        },
        {
          "indexed": false,
          "internalType": "uint256",
          "name": "value",
          "type": "uint256"
        }
      ],
      "name": "Approval",
      "type": "event"
    },
    {
      "anonymous": false,
      "inputs": [
        {
          "indexed": false,
          "internalType": "address",
          "name": "monetaryPolicy",
          "type": "address"
        }
      ],
      "name": "LogMonetaryPolicyUpdated",
      "type": "event"
    },
    {
      "anonymous": false,
      "inputs": [
        {
          "indexed": true,
          "internalType": "uint256",
          "name": "epoch",
          "type": "uint256"
        },
        {
          "indexed": false,
          "internalType": "uint256",
          "name": "totalSupply",
          "type": "uint256"
        }
      ],
      "name": "LogRebase",
      "type": "event"
    },
    {
      "anonymous": false,
      "inputs": [
        {
          "indexed": false,
          "internalType": "bool",
          "name": "paused",
          "type": "bool"
        }
      ],
      "name": "LogRebasePaused",
      "type": "event"
    },
    {
      "anonymous": false,
      "inputs": [
        {
          "indexed": false,
          "internalType": "bool",
          "name": "paused",
          "type": "bool"
        }
      ],
      "name": "LogTokenPaused",
      "type": "event"
    },
    {
      "anonymous": false,
      "inputs": [
        {
          "indexed": true,
          "internalType": "address",
          "name": "previousOwner",
          "type": "address"
        },
        {
          "indexed": true,
          "internalType": "address",
          "name": "newOwner",
          "type": "address"
        }
      ],
      "name": "OwnershipTransferred",
      "type": "event"
    },
    {
      "anonymous": false,
      "inputs": [
        {
          "indexed": true,
          "internalType": "address",
          "name": "from",
          "type": "address"
        },
        {
          "indexed": true,
          "internalType": "address",
          "name": "to",
          "type": "address"
        },
        {
          "indexed": false,
          "internalType": "uint256",
          "name": "value",
          "type": "uint256"
        }
      ],
      "name": "Transfer",
      "type": "event"
    },
    {
      "inputs": [],
      "name": "decimals",
      "outputs": [
        {
          "internalType": "uint8",
          "name": "",
          "type": "uint8"
        }
      ],
      "stateMutability": "view",
      "type": "function",
      "constant": true
    },
    {
      "inputs": [],
      "name": "monetaryPolicy",
      "outputs": [
        {
          "internalType": "address",
          "name": "",
          "type": "address"
        }
      ],
      "stateMutability": "view",
      "type": "function",
      "constant": true
    },
    {
      "inputs": [],
      "name": "name",
      "outputs": [
        {
          "internalType": "string",
          "name": "",
          "type": "string"
        }
      ],
      "stateMutability": "view",
      "type": "function",
      "constant": true
    },
    {
      "inputs": [],
      "name": "owner",
      "outputs": [
        {
          "internalType": "address",
          "name": "",
          "type": "address"
        }
      ],
      "stateMutability": "view",
      "type": "function",
      "constant": true
    },
    {
      "inputs": [],
      "name": "rebasePaused",
      "outputs": [
        {
          "internalType": "bool",
          "name": "",
          "type": "bool"
        }
      ],
      "stateMutability": "view",
      "type": "function",
      "constant": true
    },
    {
      "inputs": [],
      "name": "renounceOwnership",
      "outputs": [],
      "stateMutability": "nonpayable",
      "type": "function"
    },
    {
      "inputs": [],
      "name": "symbol",
      "outputs": [
        {
          "internalType": "string",
          "name": "",
          "type": "string"
        }
      ],
      "stateMutability": "view",
      "type": "function",
      "constant": true
    },
    {
      "inputs": [],
      "name": "tokenPaused",
      "outputs": [
        {
          "internalType": "bool",
          "name": "",
          "type": "bool"
        }
      ],
      "stateMutability": "view",
      "type": "function",
      "constant": true
    },
    {
      "inputs": [
        {
          "internalType": "address",
          "name": "newOwner",
          "type": "address"
        }
      ],
      "name": "transferOwnership",
      "outputs": [],
      "stateMutability": "nonpayable",
      "type": "function"
    },
    {
      "inputs": [
        {
          "internalType": "address",
          "name": "monetaryPolicy_",
          "type": "address"
        }
      ],
      "name": "setMonetaryPolicy",
      "outputs": [],
      "stateMutability": "nonpayable",
      "type": "function"
    },
    {
      "inputs": [
        {
          "internalType": "bool",
          "name": "paused",
          "type": "bool"
        }
      ],
      "name": "setRebasePaused",
      "outputs": [],
      "stateMutability": "nonpayable",
      "type": "function"
    },
    {
      "inputs": [
        {
          "internalType": "bool",
          "name": "paused",
          "type": "bool"
        }
      ],
      "name": "setTokenPaused",
      "outputs": [],
      "stateMutability": "nonpayable",
      "type": "function"
    },
    {
      "inputs": [
        {
          "internalType": "uint256",
          "name": "epoch",
          "type": "uint256"
        },
        {
          "internalType": "int256",
          "name": "supplyDelta",
          "type": "int256"
        }
      ],
      "name": "rebase",
      "outputs": [
        {
          "internalType": "uint256",
          "name": "",
          "type": "uint256"
        }
      ],
      "stateMutability": "nonpayable",
      "type": "function"
    },
    {
      "inputs": [
        {
          "internalType": "address",
          "name": "owner_",
          "type": "address"
        }
      ],
      "name": "initialize",
      "outputs": [],
      "stateMutability": "nonpayable",
      "type": "function"
    },
    {
      "inputs": [],
      "name": "totalSupply",
      "outputs": [
        {
          "internalType": "uint256",
          "name": "",
          "type": "uint256"
        }
      ],
      "stateMutability": "view",
      "type": "function",
      "constant": true
    },
    {
      "inputs": [
        {
          "internalType": "address",
          "name": "who",
          "type": "address"
        }
      ],
      "name": "balanceOf",
      "outputs": [
        {
          "internalType": "uint256",
          "name": "",
          "type": "uint256"
        }
      ],
      "stateMutability": "view",
      "type": "function",
      "constant": true
    },
    {
      "inputs": [
        {
          "internalType": "address",
          "name": "to",
          "type": "address"
        },
        {
          "internalType": "uint256",
          "name": "value",
          "type": "uint256"
        }
      ],
      "name": "transfer",
      "outputs": [
        {
          "internalType": "bool",
          "name": "",
          "type": "bool"
        }
      ],
      "stateMutability": "nonpayable",
      "type": "function"
    },
    {
      "inputs": [
        {
          "internalType": "address",
          "name": "owner_",
          "type": "address"
        },
        {
          "internalType": "address",
          "name": "spender",
          "type": "address"
        }
      ],
      "name": "allowance",
      "outputs": [
        {
          "internalType": "uint256",
          "name": "",
          "type": "uint256"
        }
      ],
      "stateMutability": "view",
      "type": "function",
      "constant": true
    },
    {
      "inputs": [
        {
          "internalType": "address",
          "name": "from",
          "type": "address"
        },
        {
          "internalType": "address",
          "name": "to",
          "type": "address"
        },
        {
          "internalType": "uint256",
          "name": "value",
          "type": "uint256"
        }
      ],
      "name": "transferFrom",
      "outputs": [
        {
          "internalType": "bool",
          "name": "",
          "type": "bool"
        }
      ],
      "stateMutability": "nonpayable",
      "type": "function"
    },
    {
      "inputs": [
        {
          "internalType": "address",
          "name": "spender",
          "type": "address"
        },
        {
          "internalType": "uint256",
          "name": "value",
          "type": "uint256"
        }
      ],
      "name": "approve",
      "outputs": [
        {
          "internalType": "bool",
          "name": "",
          "type": "bool"
        }
      ],
      "stateMutability": "nonpayable",
      "type": "function"
    },
    {
      "inputs": [
        {
          "internalType": "address",
          "name": "spender",
          "type": "address"
        },
        {
          "internalType": "uint256",
          "name": "addedValue",
          "type": "uint256"
        }
      ],
      "name": "increaseAllowance",
      "outputs": [
        {
          "internalType": "bool",
          "name": "",
          "type": "bool"
        }
      ],
      "stateMutability": "nonpayable",
      "type": "function"
    },
    {
      "inputs": [
        {
          "internalType": "address",
          "name": "spender",
          "type": "address"
        },
        {
          "internalType": "uint256",
          "name": "subtractedValue",
          "type": "uint256"
        }
      ],
      "name": "decreaseAllowance",
      "outputs": [
        {
          "internalType": "bool",
          "name": "",
          "type": "bool"
        }
      ],
      "stateMutability": "nonpayable",
      "type": "function"
    }
  ],
  "bytecode": "0x60806040523480156200001157600080fd5b506040805180820190915260068082527f52656261736500000000000000000000000000000000000000000000000000006020909201918252620000589160009162000137565b506040805180820190915260068082527f524542415345000000000000000000000000000000000000000000000000000060209092019182526200009f9160019162000137565b506002805460ff19166012179055620000d3620000c4640100000000620000d9810204565b640100000000620000dd810204565b62000233565b3390565b60028054600160a060020a0383811661010081810261010060a860020a031985161790945560405193909204169182907f8be0079c531659141344cd1fd0a4f28419497f9722a3daafe3b4186f6b6457e090600090a35050565b8280546200014590620001dd565b90600052602060002090601f016020900481019282620001695760008555620001b4565b82601f106200018457805160ff1916838001178555620001b4565b82800160010185558215620001b4579182015b82811115620001b457825182559160200191906001019062000197565b50620001c2929150620001c6565b5090565b5b80821115620001c25760008155600101620001c7565b600281046001821680620001f257607f821691505b602082108114156200022d577f4e487b7100000000000000000000000000000000000000000000000000000000600052602260045260246000fd5b50919050565b61126a80620002436000396000f3fe608060405234801561001057600080fd5b506004361061015f576000357c0100000000000000000000000000000000000000000000000000000000900480637a43e23f116100d557806395d89b411161009957806395d89b4114610288578063a457c2d714610290578063a9059cbb146102a3578063c4d66de8146102b6578063dd62ed3e146102c9578063f2fde38b146102dc5761015f565b80637a43e23f1461023d57806386c75e74146102505780638b5a6a08146102585780638da5cb5b1461026b5780638e27d7d7146102805761015f565b8063295194571161012757806329519457146101df578063313ce567146101f2578063395093511461020757806353ca9f241461021a57806370a0823114610222578063715018a6146102355761015f565b806306fdde0314610164578063095ea7b31461018257806318160ddd146101a257806322872e0b146101b757806323b872dd146101cc575b600080fd5b61016c6102ef565b6040516101799190610fda565b60405180910390f35b610195610190366004610f51565b610381565b6040516101799190610fcf565b6101aa610407565b60405161017991906110bf565b6101ca6101c5366004610f7a565b61040d565b005b6101956101da366004610f16565b6104cc565b6101ca6101ed366004610f7a565b61062d565b6101fa6106c8565b60405161017991906110c8565b610195610215366004610f51565b6106d1565b610195610771565b6101aa610230366004610eca565b610792565b6101ca6107c2565b6101aa61024b366004610f9a565b610810565b610195610978565b6101ca610266366004610eca565b610988565b610273610a22565b6040516101799190610fbb565b610273610a36565b61016c610a45565b61019561029e366004610f51565b610a54565b6101956102b1366004610f51565b610b5a565b6101ca6102c4366004610eca565b610c5f565b6101aa6102d7366004610ee4565b610d29565b6101ca6102ea366004610eca565b610d54565b6060600080546102fe90611138565b80601f016020809104026020016040519081016040528092919081815260200182805461032a90611138565b80156103775780601f1061034c57610100808354040283529160200191610377565b820191906000526020600020905b81548152906001019060200180831161035a57829003601f168201915b5050505050905090565b60035460009060a860020a900460ff161561039b57600080fd5b336000818152600760209081526040808320600160a060020a03881680855292529182902085905590519091907f8c5be1e5ebec7d5bd14f71427d1e84f3dd0314c0f7b2291e5b200ac8c7c3b925906103f59086906110bf565b60405180910390a35060015b92915050565b60045490565b610415610dcb565b600160a060020a0316610426610a22565b600160a060020a0316146104585760405160e560020a62461bcd02815260040161044f9061108a565b60405180910390fd5b6003805474ff0000000000000000000000000000000000000000191674010000000000000000000000000000000000000000831515021790556040517fb36927c68760751ec71d827eb30be804be612d87c7c6b6a1f255258c6a1bea66906104c1908390610fcf565b60405180910390a150565b600082600160a060020a0381166104e257600080fd5b600160a060020a0381163014156104f857600080fd5b60035460a860020a900460ff161561050f57600080fd5b600160a060020a038516600090815260076020908152604080832033845290915290205461053d9084610dcf565b600160a060020a0386166000908152600760209081526040808320338452909152812091909155600554610572908590610de2565b600160a060020a0387166000908152600660205260409020549091506105989082610dcf565b600160a060020a0380881660009081526006602052604080822093909355908716815220546105c79082610dee565b600160a060020a0380871660008181526006602052604090819020939093559151908816907fddf252ad1be2c89b69c2b068fc378daa952ba7f163c4a11628f55a4df523b3ef906106199088906110bf565b60405180910390a350600195945050505050565b610635610dcb565b600160a060020a0316610646610a22565b600160a060020a03161461066f5760405160e560020a62461bcd02815260040161044f9061108a565b6003805475ff000000000000000000000000000000000000000000191660a860020a831515021790556040517f398c4e18c8ef7f11eb3921fe2d01d3b469329a5f01febf5ba17f2462f27f439c906104c1908390610fcf565b60025460ff1690565b60035460009060a860020a900460ff16156106eb57600080fd5b336000908152600760209081526040808320600160a060020a03871684529091529020546107199083610dee565b336000818152600760209081526040808320600160a060020a038916808552925291829020849055905190927f8c5be1e5ebec7d5bd14f71427d1e84f3dd0314c0f7b2291e5b200ac8c7c3b925916103f591906110bf565b60035474010000000000000000000000000000000000000000900460ff1681565b600554600160a060020a03821660009081526006602052604081205490916107ba9190610dfa565b90505b919050565b6107ca610dcb565b600160a060020a03166107db610a22565b600160a060020a0316146108045760405160e560020a62461bcd02815260040161044f9061108a565b61080e6000610e06565b565b600354600090600160a060020a0316331461082a57600080fd5b60035474010000000000000000000000000000000000000000900460ff161561085257600080fd5b8161089a57827f72725a3b1e5bd622d6bcd1339bb31279c351abe8f541ac7fd320f24e1b1641f260045460405161088991906110bf565b60405180910390a250600454610401565b60008212156108c0576108b86108af83610e6d565b60045490610dcf565b6004556108d1565b6004546108cd9083610dee565b6004555b6004546fffffffffffffffffffffffffffffffff1015610900576fffffffffffffffffffffffffffffffff6004555b60045461092f9061091d69d3c21bcecceda100000060001961118c565b61092990600019611121565b90610dfa565b60055560045460405184917f72725a3b1e5bd622d6bcd1339bb31279c351abe8f541ac7fd320f24e1b1641f29161096691906110bf565b60405180910390a25060045492915050565b60035460a860020a900460ff1681565b610990610dcb565b600160a060020a03166109a1610a22565b600160a060020a0316146109ca5760405160e560020a62461bcd02815260040161044f9061108a565b6003805473ffffffffffffffffffffffffffffffffffffffff1916600160a060020a0383161790556040517f0e6961f1a1afb87eaf51fd64f22ddc10062e23aa7838eac5d0bdf140bfd38972906104c1908390610fbb565b6002546101009004600160a060020a031690565b600354600160a060020a031681565b6060600180546102fe90611138565b60035460009060a860020a900460ff1615610a6e57600080fd5b336000908152600760209081526040808320600160a060020a0387168452909152902054808310610ac257336000908152600760209081526040808320600160a060020a0388168452909152812055610af1565b610acc8184610dcf565b336000908152600760209081526040808320600160a060020a03891684529091529020555b336000818152600760209081526040808320600160a060020a0389168085529252918290205491519092917f8c5be1e5ebec7d5bd14f71427d1e84f3dd0314c0f7b2291e5b200ac8c7c3b92591610b4891906110bf565b60405180910390a35060019392505050565b600082600160a060020a038116610b7057600080fd5b600160a060020a038116301415610b8657600080fd5b60035460a860020a900460ff1615610b9d57600080fd5b6000610bb460055485610de290919063ffffffff16565b33600090815260066020526040902054909150610bd19082610dcf565b3360009081526006602052604080822092909255600160a060020a03871681522054610bfd9082610dee565b600160a060020a0386166000818152600660205260409081902092909255905133907fddf252ad1be2c89b69c2b068fc378daa952ba7f163c4a11628f55a4df523b3ef90610c4c9088906110bf565b60405180910390a3506001949350505050565b6003805475ffff00000000000000000000000000000000000000001916905569d3c21bcecceda10000006004819055610c9a9060001961118c565b610ca690600019611121565b600160a060020a038216600090815260066020526040902055600454610cdc9061091d69d3c21bcecceda100000060001961118c565b600555600454604051600160a060020a038316916000917fddf252ad1be2c89b69c2b068fc378daa952ba7f163c4a11628f55a4df523b3ef91610d1e916110bf565b60405180910390a350565b600160a060020a03918216600090815260076020908152604080832093909416825291909152205490565b610d5c610dcb565b600160a060020a0316610d6d610a22565b600160a060020a031614610d965760405160e560020a62461bcd02815260040161044f9061108a565b600160a060020a038116610dbf5760405160e560020a62461bcd02815260040161044f9061102d565b610dc881610e06565b50565b3390565b6000610ddb8284611121565b9392505050565b6000610ddb8284611102565b6000610ddb82846110d6565b6000610ddb82846110ee565b60028054600160a060020a0383811661010081810274ffffffffffffffffffffffffffffffffffffffff001985161790945560405193909204169182907f8be0079c531659141344cd1fd0a4f28419497f9722a3daafe3b4186f6b6457e090600090a35050565b60007f8000000000000000000000000000000000000000000000000000000000000000821415610e9c57600080fd5b60008212610eaa57816107ba565b6107ba826111a0565b8035600160a060020a03811681146107bd57600080fd5b600060208284031215610edb578081fd5b610ddb82610eb3565b60008060408385031215610ef6578081fd5b610eff83610eb3565b9150610f0d60208401610eb3565b90509250929050565b600080600060608486031215610f2a578081fd5b610f3384610eb3565b9250610f4160208501610eb3565b9150604084013590509250925092565b60008060408385031215610f63578182fd5b610f6c83610eb3565b946020939093013593505050565b600060208284031215610f8b578081fd5b81358015158114610ddb578182fd5b60008060408385031215610fac578182fd5b50508035926020909101359150565b600160a060020a0391909116815260200190565b901515815260200190565b6000602080835283518082850152825b8181101561100657858101830151858201604001528201610fea565b818111156110175783604083870101525b50601f01601f1916929092016040019392505050565b60208082526026908201527f4f776e61626c653a206e6577206f776e657220697320746865207a65726f206160408201527f6464726573730000000000000000000000000000000000000000000000000000606082015260800190565b6020808252818101527f4f776e61626c653a2063616c6c6572206973206e6f7420746865206f776e6572604082015260600190565b90815260200190565b60ff91909116815260200190565b600082198211156110e9576110e96111d6565b500190565b6000826110fd576110fd611205565b500490565b600081600019048311821515161561111c5761111c6111d6565b500290565b600082821015611133576111336111d6565b500390565b60028104600182168061114c57607f821691505b60208210811415611186577f4e487b7100000000000000000000000000000000000000000000000000000000600052602260045260246000fd5b50919050565b60008261119b5761119b611205565b500690565b60007f80000000000000000000000000000000000000000000000000000000000000008214156111d2576111d26111d6565b0390565b7f4e487b7100000000000000000000000000000000000000000000000000000000600052601160045260246000fd5b7f4e487b7100000000000000000000000000000000000000000000000000000000600052601260045260246000fdfea26469706673582212209785d81bc1397f2330186c4a1b176ce6a805808588d0f2c165e7106a19599d6064736f6c63430008000033",
  "immutableReferences": {},
  "source": "// SPDX-License-Identifier: MIT\n\npragma solidity >=0.4.0 <0.9.0;\n\n/**\n * @dev Wrappers over Solidity's arithmetic operations.\n *\n * NOTE: `SafeMath` is no longer needed starting with Solidity 0.8. The compiler\n * now has built in overflow checking.\n */\nlibrary SafeMath {\n    /**\n     * @dev Returns the addition of two unsigned integers, with an overflow flag.\n     *\n     * _Available since v3.4._\n     */\n    function tryAdd(uint256 a, uint256 b)\n        internal\n        pure\n        returns (bool, uint256)\n    {\n        unchecked {\n            uint256 c = a + b;\n            if (c < a) return (false, 0);\n            return (true, c);\n        }\n    }\n\n    /**\n     * @dev Returns the substraction of two unsigned integers, with an overflow flag.\n     *\n     * _Available since v3.4._\n     */\n    function trySub(uint256 a, uint256 b)\n        internal\n        pure\n        returns (bool, uint256)\n    {\n        unchecked {\n            if (b > a) return (false, 0);\n            return (true, a - b);\n        }\n    }\n\n    /**\n     * @dev Returns the multiplication of two unsigned integers, with an overflow flag.\n     *\n     * _Available since v3.4._\n     */\n    function tryMul(uint256 a, uint256 b)\n        internal\n        pure\n        returns (bool, uint256)\n    {\n        unchecked {\n            // Gas optimization: this is cheaper than requiring 'a' not being zero, but the\n            // benefit is lost if 'b' is also tested.\n            // See: https://github.com/OpenZeppelin/openzeppelin-contracts/pull/522\n            if (a == 0) return (true, 0);\n            uint256 c = a * b;\n            if (c / a != b) return (false, 0);\n            return (true, c);\n        }\n    }\n\n    /**\n     * @dev Returns the division of two unsigned integers, with a division by zero flag.\n     *\n     * _Available since v3.4._\n     */\n    function tryDiv(uint256 a, uint256 b)\n        internal\n        pure\n        returns (bool, uint256)\n    {\n        unchecked {\n            if (b == 0) return (false, 0);\n            return (true, a / b);\n        }\n    }\n\n    /**\n     * @dev Returns the remainder of dividing two unsigned integers, with a division by zero flag.\n     *\n     * _Available since v3.4._\n     */\n    function tryMod(uint256 a, uint256 b)\n        internal\n        pure\n        returns (bool, uint256)\n    {\n        unchecked {\n            if (b == 0) return (false, 0);\n            return (true, a % b);\n        }\n    }\n\n    /**\n     * @dev Returns the addition of two unsigned integers, reverting on\n     * overflow.\n     *\n     * Counterpart to Solidity's `+` operator.\n     *\n     * Requirements:\n     *\n     * - Addition cannot overflow.\n     */\n    function add(uint256 a, uint256 b) internal pure returns (uint256) {\n        return a + b;\n    }\n\n    /**\n     * @dev Returns the subtraction of two unsigned integers, reverting on\n     * overflow (when the result is negative).\n     *\n     * Counterpart to Solidity's `-` operator.\n     *\n     * Requirements:\n     *\n     * - Subtraction cannot overflow.\n     */\n    function sub(uint256 a, uint256 b) internal pure returns (uint256) {\n        return a - b;\n    }\n\n    /**\n     * @dev Returns the multiplication of two unsigned integers, reverting on\n     * overflow.\n     *\n     * Counterpart to Solidity's `*` operator.\n     *\n     * Requirements:\n     *\n     * - Multiplication cannot overflow.\n     */\n    function mul(uint256 a, uint256 b) internal pure returns (uint256) {\n        return a * b;\n    }\n\n    /**\n     * @dev Returns the integer division of two unsigned integers, reverting on\n     * division by zero. The result is rounded towards zero.\n     *\n     * Counterpart to Solidity's `/` operator.\n     *\n     * Requirements:\n     *\n     * - The divisor cannot be zero.\n     */\n    function div(uint256 a, uint256 b) internal pure returns (uint256) {\n        return a / b;\n    }\n\n    /**\n     * @dev Returns the remainder of dividing two unsigned integers. (unsigned integer modulo),\n     * reverting when dividing by zero.\n     *\n     * Counterpart to Solidity's `%` operator. This function uses a `revert`\n     * opcode (which leaves remaining gas untouched) while Solidity uses an\n     * invalid opcode to revert (consuming all remaining gas).\n     *\n     * Requirements:\n     *\n     * - The divisor cannot be zero.\n     */\n    function mod(uint256 a, uint256 b) internal pure returns (uint256) {\n        return a % b;\n    }\n\n    /**\n     * @dev Returns the subtraction of two unsigned integers, reverting with custom message on\n     * overflow (when the result is negative).\n     *\n     * CAUTION: This function is deprecated because it requires allocating memory for the error\n     * message unnecessarily. For custom revert reasons use {trySub}.\n     *\n     * Counterpart to Solidity's `-` operator.\n     *\n     * Requirements:\n     *\n     * - Subtraction cannot overflow.\n     */\n    function sub(\n        uint256 a,\n        uint256 b,\n        string memory errorMessage\n    ) internal pure returns (uint256) {\n        unchecked {\n            require(b <= a, errorMessage);\n            return a - b;\n        }\n    }\n\n    /**\n     * @dev Returns the integer division of two unsigned integers, reverting with custom message on\n     * division by zero. The result is rounded towards zero.\n     *\n     * Counterpart to Solidity's `/` operator. Note: this function uses a\n     * `revert` opcode (which leaves remaining gas untouched) while Solidity\n     * uses an invalid opcode to revert (consuming all remaining gas).\n     *\n     * Requirements:\n     *\n     * - The divisor cannot be zero.\n     */\n    function div(\n        uint256 a,\n        uint256 b,\n        string memory errorMessage\n    ) internal pure returns (uint256) {\n        unchecked {\n            require(b > 0, errorMessage);\n            return a / b;\n        }\n    }\n\n    /**\n     * @dev Returns the remainder of dividing two unsigned integers. (unsigned integer modulo),\n     * reverting with custom message when dividing by zero.\n     *\n     * CAUTION: This function is deprecated because it requires allocating memory for the error\n     * message unnecessarily. For custom revert reasons use {tryMod}.\n     *\n     * Counterpart to Solidity's `%` operator. This function uses a `revert`\n     * opcode (which leaves remaining gas untouched) while Solidity uses an\n     * invalid opcode to revert (consuming all remaining gas).\n     *\n     * Requirements:\n     *\n     * - The divisor cannot be zero.\n     */\n    function mod(\n        uint256 a,\n        uint256 b,\n        string memory errorMessage\n    ) internal pure returns (uint256) {\n        unchecked {\n            require(b > 0, errorMessage);\n            return a % b;\n        }\n    }\n}\n\n/**\n * @dev Provides information about the current execution context, including the\n * sender of the transaction and its data. While these are generally available\n * via msg.sender and msg.data, they should not be accessed in such a direct\n * manner, since when dealing with meta-transactions the account sending and\n * paying for execution may not be the actual sender (as far as an application\n * is concerned).\n *\n * This contract is only required for intermediate, library-like contracts.\n */\nabstract contract Context {\n    function _msgSender() internal view virtual returns (address) {\n        return msg.sender;\n    }\n\n    function _msgData() internal view virtual returns (bytes calldata) {\n        return msg.data;\n    }\n}\n\n/**\n * @dev Contract module which provides a basic access control mechanism, where\n * there is an account (an owner) that can be granted exclusive access to\n * specific functions.\n *\n * By default, the owner account will be the one that deploys the contract. This\n * can later be changed with {transferOwnership}.\n *\n * This module is used through inheritance. It will make available the modifier\n * `onlyOwner`, which can be applied to your functions to restrict their use to\n * the owner.\n */\nabstract contract Ownable is Context {\n    address private _owner;\n\n    event OwnershipTransferred(\n        address indexed previousOwner,\n        address indexed newOwner\n    );\n\n    /**\n     * @dev Initializes the contract setting the deployer as the initial owner.\n     */\n    constructor() {\n        _setOwner(_msgSender());\n    }\n\n    /**\n     * @dev Returns the address of the current owner.\n     */\n    function owner() public view virtual returns (address) {\n        return _owner;\n    }\n\n    /**\n     * @dev Throws if called by any account other than the owner.\n     */\n    modifier onlyOwner() {\n        require(owner() == _msgSender(), \"Ownable: caller is not the owner\");\n        _;\n    }\n\n    /**\n     * @dev Leaves the contract without owner. It will not be possible to call\n     * `onlyOwner` functions anymore. Can only be called by the current owner.\n     *\n     * NOTE: Renouncing ownership will leave the contract without an owner,\n     * thereby removing any functionality that is only available to the owner.\n     */\n    function renounceOwnership() public virtual onlyOwner {\n        _setOwner(address(0));\n    }\n\n    /**\n     * @dev Transfers ownership of the contract to a new account (`newOwner`).\n     * Can only be called by the current owner.\n     */\n    function transferOwnership(address newOwner) public virtual onlyOwner {\n        require(\n            newOwner != address(0),\n            \"Ownable: new owner is the zero address\"\n        );\n        _setOwner(newOwner);\n    }\n\n    function _setOwner(address newOwner) private {\n        address oldOwner = _owner;\n        _owner = newOwner;\n        emit OwnershipTransferred(oldOwner, newOwner);\n    }\n}\n\n/**\n * @dev Interface of the ERC20 standard as defined in the EIP.\n */\ninterface IERC20 {\n    /**\n     * @dev Returns the amount of tokens in existence.\n     */\n    function totalSupply() external view returns (uint256);\n\n    /**\n     * @dev Returns the amount of tokens owned by `account`.\n     */\n    function balanceOf(address account) external view returns (uint256);\n\n    /**\n     * @dev Moves `amount` tokens from the caller's account to `recipient`.\n     *\n     * Returns a boolean value indicating whether the operation succeeded.\n     *\n     * Emits a {Transfer} event.\n     */\n    function transfer(address recipient, uint256 amount)\n        external\n        returns (bool);\n\n    /**\n     * @dev Returns the remaining number of tokens that `spender` will be\n     * allowed to spend on behalf of `owner` through {transferFrom}. This is\n     * zero by default.\n     *\n     * This value changes when {approve} or {transferFrom} are called.\n     */\n    function allowance(address owner, address spender)\n        external\n        view\n        returns (uint256);\n\n    /**\n     * @dev Sets `amount` as the allowance of `spender` over the caller's tokens.\n     *\n     * Returns a boolean value indicating whether the operation succeeded.\n     *\n     * IMPORTANT: Beware that changing an allowance with this method brings the risk\n     * that someone may use both the old and the new allowance by unfortunate\n     * transaction ordering. One possible solution to mitigate this race\n     * condition is to first reduce the spender's allowance to 0 and set the\n     * desired value afterwards:\n     * https://github.com/ethereum/EIPs/issues/20#issuecomment-263524729\n     *\n     * Emits an {Approval} event.\n     */\n    function approve(address spender, uint256 amount) external returns (bool);\n\n    /**\n     * @dev Moves `amount` tokens from `sender` to `recipient` using the\n     * allowance mechanism. `amount` is then deducted from the caller's\n     * allowance.\n     *\n     * Returns a boolean value indicating whether the operation succeeded.\n     *\n     * Emits a {Transfer} event.\n     */\n    function transferFrom(\n        address sender,\n        address recipient,\n        uint256 amount\n    ) external returns (bool);\n\n    /**\n     * @dev Emitted when `value` tokens are moved from one account (`from`) to\n     * another (`to`).\n     *\n     * Note that `value` may be zero.\n     */\n    event Transfer(address indexed from, address indexed to, uint256 value);\n\n    /**\n     * @dev Emitted when the allowance of a `spender` for an `owner` is set by\n     * a call to {approve}. `value` is the new allowance.\n     */\n    event Approval(\n        address indexed owner,\n        address indexed spender,\n        uint256 value\n    );\n}\n\n/**\n * @dev Optional functions from the ERC20 standard.\n */\nabstract contract ERC20Detailed is IERC20 {\n    string private _name;\n    string private _symbol;\n    uint8 private _decimals;\n\n    /**\n     * @dev Sets the values for `name`, `symbol`, and `decimals`. All three of\n     * these values are immutable: they can only be set once during\n     * construction.\n     */\n    constructor(\n    ) {\n        _name = \"Rebase\";\n        _symbol = \"REBASE\";\n        _decimals = 18;\n    }\n\n    /**\n     * @dev Returns the name of the token.\n     */\n    function name() public view returns (string memory) {\n        return _name;\n    }\n\n    /**\n     * @dev Returns the symbol of the token, usually a shorter version of the\n     * name.\n     */\n    function symbol() public view returns (string memory) {\n        return _symbol;\n    }\n\n    /**\n     * @dev Returns the number of decimals used to get its user representation.\n     * For example, if `decimals` equals `2`, a balance of `505` tokens should\n     * be displayed to a user as `5,05` (`505 / 10 ** 2`).\n     *\n     * Tokens usually opt for a value of 18, imitating the relationship between\n     * Ether and Wei.\n     *\n     * NOTE: This information is only used for _display_ purposes: it in\n     * no way affects any of the arithmetic of the contract, including\n     * {IERC20-balanceOf} and {IERC20-transfer}.\n     */\n    function decimals() public view returns (uint8) {\n        return _decimals;\n    }\n}\n\n/**\n * @title SafeMathInt\n * @dev Math operations for int256 with overflow safety checks.\n */\nlibrary SafeMathInt {\n    int256 private constant MIN_INT256 = int256(1) << 255;\n    int256 private constant MAX_INT256 = ~(int256(1) << 255);\n\n    /**\n     * @dev Multiplies two int256 variables and fails on overflow.\n     */\n    function mul(int256 a, int256 b) internal pure returns (int256) {\n        int256 c = a * b;\n\n        // Detect overflow when multiplying MIN_INT256 with -1\n        require(c != MIN_INT256 || (a & MIN_INT256) != (b & MIN_INT256));\n        require((b == 0) || (c / b == a));\n        return c;\n    }\n\n    /**\n     * @dev Division of two int256 variables and fails on overflow.\n     */\n    function div(int256 a, int256 b) internal pure returns (int256) {\n        // Prevent overflow when dividing MIN_INT256 by -1\n        require(b != -1 || a != MIN_INT256);\n\n        // Solidity already throws when dividing by 0.\n        return a / b;\n    }\n\n    /**\n     * @dev Subtracts two int256 variables and fails on overflow.\n     */\n    function sub(int256 a, int256 b) internal pure returns (int256) {\n        int256 c = a - b;\n        require((b >= 0 && c <= a) || (b < 0 && c > a));\n        return c;\n    }\n\n    /**\n     * @dev Adds two int256 variables and fails on overflow.\n     */\n    function add(int256 a, int256 b) internal pure returns (int256) {\n        int256 c = a + b;\n        require((b >= 0 && c >= a) || (b < 0 && c < a));\n        return c;\n    }\n\n    /**\n     * @dev Converts to absolute value, and fails on overflow.\n     */\n    function abs(int256 a) internal pure returns (int256) {\n        require(a != MIN_INT256);\n        return a < 0 ? -a : a;\n    }\n}\n\n/**\n * @title Rebase ERC20 token\n * @dev This is part of an implementation of the Rebase Ideal Money protocol.\n *      Rebase is a normal ERC20 token, but its supply can be adjusted by splitting and\n *      combining tokens proportionally across all wallets.\n *\n *      Rebase balances are internally represented with a hidden denomination, 'gons'.\n *      We support splitting the currency in expansion and combining the currency on contraction by\n *      changing the exchange rate between the hidden 'gons' and the public 'fragments'.\n */\ncontract Rebase is ERC20Detailed, Ownable {\n    // PLEASE READ BEFORE CHANGING ANY ACCOUNTING OR MATH\n    // Anytime there is division, there is a risk of numerical instability from rounding errors. In\n    // order to minimize this risk, we adhere to the following guidelines:\n    // 1) The conversion rate adopted is the number of gons that equals 1 fragment.\n    //    The inverse rate must not be used--TOTAL_GONS is always the numerator and _totalSupply is\n    //    always the denominator. (i.e. If you want to convert gons to fragments instead of\n    //    multiplying by the inverse rate, you should divide by the normal rate)\n    // 2) Gon balances converted into Fragments are always rounded down (truncated).\n    //\n    // We make the following guarantees:\n    // - If address 'A' transfers x Fragments to address 'B'. A's resulting external balance will\n    //   be decreased by precisely x Fragments, and B's external balance will be precisely\n    //   increased by x Fragments.\n    //\n    // We do not guarantee that the sum of all balances equals the result of calling totalSupply().\n    // This is because, for any conversion function 'f()' that has non-zero rounding error,\n    // f(x0) + f(x1) + ... + f(xn) is not always equal to f(x0 + x1 + ... xn).\n    using SafeMath for uint256;\n    using SafeMathInt for int256;\n\n    event LogRebase(uint256 indexed epoch, uint256 totalSupply);\n    event LogRebasePaused(bool paused);\n    event LogTokenPaused(bool paused);\n    event LogMonetaryPolicyUpdated(address monetaryPolicy);\n\n    // Used for authentication\n    address public monetaryPolicy;\n\n    modifier onlyMonetaryPolicy() {\n        require(msg.sender == monetaryPolicy);\n        _;\n    }\n\n    // Precautionary emergency controls.\n    bool public rebasePaused;\n    bool public tokenPaused;\n\n    modifier whenRebaseNotPaused() {\n        require(!rebasePaused);\n        _;\n    }\n\n    modifier whenTokenNotPaused() {\n        require(!tokenPaused);\n        _;\n    }\n\n    modifier validRecipient(address to) {\n        require(to != address(0x0));\n        require(to != address(this));\n        _;\n    }\n\n    uint256 private constant DECIMALS = 9;\n    uint256 private constant MAX_UINT256 = ~uint256(0);\n    uint256 private constant INITIAL_FRAGMENTS_SUPPLY = 1000000 * 10**18;\n\n    // TOTAL_GONS is a multiple of INITIAL_FRAGMENTS_SUPPLY so that _gonsPerFragment is an integer.\n    // Use the highest value that fits in a uint256 for max granularity.\n    uint256 private constant TOTAL_GONS =\n        MAX_UINT256 - (MAX_UINT256 % INITIAL_FRAGMENTS_SUPPLY);\n\n    // MAX_SUPPLY = maximum integer < (sqrt(4*TOTAL_GONS + 1) - 1) / 2\n    uint256 private constant MAX_SUPPLY = ~uint128(0); // (2^128) - 1\n\n    uint256 private _totalSupply;\n    uint256 private _gonsPerFragment;\n    mapping(address => uint256) private _gonBalances;\n\n    // This is denominated in Fragments, because the gons-fragments conversion might change before\n    // it's fully paid.\n    mapping(address => mapping(address => uint256)) private _allowedFragments;\n\n    /**\n     * @param monetaryPolicy_ The address of the monetary policy contract to use for authentication.\n     */\n    function setMonetaryPolicy(address monetaryPolicy_) external onlyOwner {\n        monetaryPolicy = monetaryPolicy_;\n        emit LogMonetaryPolicyUpdated(monetaryPolicy_);\n    }\n\n    /**\n     * @dev Pauses or unpauses the execution of rebase operations.\n     * @param paused Pauses rebase operations if this is true.\n     */\n    function setRebasePaused(bool paused) external onlyOwner {\n        rebasePaused = paused;\n        emit LogRebasePaused(paused);\n    }\n\n    /**\n     * @dev Pauses or unpauses execution of ERC-20 transactions.\n     * @param paused Pauses ERC-20 transactions if this is true.\n     */\n    function setTokenPaused(bool paused) external onlyOwner {\n        tokenPaused = paused;\n        emit LogTokenPaused(paused);\n    }\n\n    /**\n     * @dev Notifies Fragments contract about a new rebase cycle.\n     * @param supplyDelta The number of new fragment tokens to add into circulation via expansion.\n     * @return The total number of fragments after the supply adjustment.\n     */\n    function rebase(uint256 epoch, int256 supplyDelta)\n        external\n        onlyMonetaryPolicy\n        whenRebaseNotPaused\n        returns (uint256)\n    {\n        if (supplyDelta == 0) {\n            emit LogRebase(epoch, _totalSupply);\n            return _totalSupply;\n        }\n\n        if (supplyDelta < 0) {\n            _totalSupply = _totalSupply.sub(uint256(supplyDelta.abs()));\n        } else {\n            _totalSupply = _totalSupply.add(uint256(supplyDelta));\n        }\n\n        if (_totalSupply > MAX_SUPPLY) {\n            _totalSupply = MAX_SUPPLY;\n        }\n\n        _gonsPerFragment = TOTAL_GONS.div(_totalSupply);\n\n        // From this point forward, _gonsPerFragment is taken as the source of truth.\n        // We recalculate a new _totalSupply to be in agreement with the _gonsPerFragment\n        // conversion rate.\n        // This means our applied supplyDelta can deviate from the requested supplyDelta,\n        // but this deviation is guaranteed to be < (_totalSupply^2)/(TOTAL_GONS - _totalSupply).\n        //\n        // In the case of _totalSupply <= MAX_UINT128 (our current supply cap), this\n        // deviation is guaranteed to be < 1, so we can omit this step. If the supply cap is\n        // ever increased, it must be re-included.\n        // _totalSupply = TOTAL_GONS.div(_gonsPerFragment)\n\n        emit LogRebase(epoch, _totalSupply);\n        return _totalSupply;\n    }\n\n    function initialize(address owner_) public {\n        // ERC20Detailed.initialize(\"REBASE\", \"REBASE\", uint8(18));\n        // Ownable.initialize(owner_);\n\n        rebasePaused = false;\n        tokenPaused = false;\n\n        _totalSupply = INITIAL_FRAGMENTS_SUPPLY;\n        _gonBalances[owner_] = TOTAL_GONS;\n        _gonsPerFragment = TOTAL_GONS.div(_totalSupply);\n\n        emit Transfer(address(0x0), owner_, _totalSupply);\n    }\n\n    /**\n     * @return The total number of fragments.\n     */\n    function totalSupply() public view override returns (uint256) {\n        return _totalSupply;\n    }\n\n    /**\n     * @param who The address to query.\n     * @return The balance of the specified address.\n     */\n    function balanceOf(address who) public view override returns (uint256) {\n        return _gonBalances[who].div(_gonsPerFragment);\n    }\n\n    /**\n     * @dev Transfer tokens to a specified address.\n     * @param to The address to transfer to.\n     * @param value The amount to be transferred.\n     * @return True on success, false otherwise.\n     */\n    function transfer(address to, uint256 value)\n        public override\n        validRecipient(to)\n        whenTokenNotPaused\n        returns (bool)\n    {\n        uint256 gonValue = value.mul(_gonsPerFragment);\n        _gonBalances[msg.sender] = _gonBalances[msg.sender].sub(gonValue);\n        _gonBalances[to] = _gonBalances[to].add(gonValue);\n        emit Transfer(msg.sender, to, value);\n        return true;\n    }\n\n    /**\n     * @dev Function to check the amount of tokens that an owner has allowed to a spender.\n     * @param owner_ The address which owns the funds.\n     * @param spender The address which will spend the funds.\n     * @return The number of tokens still available for the spender.\n     */\n    function allowance(address owner_, address spender)\n        public\n        view\n        override\n        returns (uint256)\n    {\n        return _allowedFragments[owner_][spender];\n    }\n\n    /**\n     * @dev Transfer tokens from one address to another.\n     * @param from The address you want to send tokens from.\n     * @param to The address you want to transfer to.\n     * @param value The amount of tokens to be transferred.\n     */\n    function transferFrom(\n        address from,\n        address to,\n        uint256 value\n    ) public override validRecipient(to) whenTokenNotPaused returns (bool) {\n        _allowedFragments[from][msg.sender] = _allowedFragments[from][\n            msg.sender\n        ].sub(value);\n\n        uint256 gonValue = value.mul(_gonsPerFragment);\n        _gonBalances[from] = _gonBalances[from].sub(gonValue);\n        _gonBalances[to] = _gonBalances[to].add(gonValue);\n        emit Transfer(from, to, value);\n\n        return true;\n    }\n\n    /**\n     * @dev Approve the passed address to spend the specified amount of tokens on behalf of\n     * msg.sender. This method is included for ERC20 compatibility.\n     * increaseAllowance and decreaseAllowance should be used instead.\n     * Changing an allowance with this method brings the risk that someone may transfer both\n     * the old and the new allowance - if they are both greater than zero - if a transfer\n     * transaction is mined before the later approve() call is mined.\n     *\n     * @param spender The address which will spend the funds.\n     * @param value The amount of tokens to be spent.\n     */\n    function approve(address spender, uint256 value)\n        public\n        override\n        whenTokenNotPaused\n        returns (bool)\n    {\n        _allowedFragments[msg.sender][spender] = value;\n        emit Approval(msg.sender, spender, value);\n        return true;\n    }\n\n    /**\n     * @dev Increase the amount of tokens that an owner has allowed to a spender.\n     * This method should be used instead of approve() to avoid the double approval vulnerability\n     * described above.\n     * @param spender The address which will spend the funds.\n     * @param addedValue The amount of tokens to increase the allowance by.\n     */\n    function increaseAllowance(address spender, uint256 addedValue)\n        public\n        whenTokenNotPaused\n        returns (bool)\n    {\n        _allowedFragments[msg.sender][spender] = _allowedFragments[msg.sender][\n            spender\n        ].add(addedValue);\n        emit Approval(\n            msg.sender,\n            spender,\n            _allowedFragments[msg.sender][spender]\n        );\n        return true;\n    }\n\n    /**\n     * @dev Decrease the amount of tokens that an owner has allowed to a spender.\n     *\n     * @param spender The address which will spend the funds.\n     * @param subtractedValue The amount of tokens to decrease the allowance by.\n     */\n    function decreaseAllowance(address spender, uint256 subtractedValue)\n        public\n        whenTokenNotPaused\n        returns (bool)\n    {\n        uint256 oldValue = _allowedFragments[msg.sender][spender];\n        if (subtractedValue >= oldValue) {\n            _allowedFragments[msg.sender][spender] = 0;\n        } else {\n            _allowedFragments[msg.sender][spender] = oldValue.sub(\n                subtractedValue\n            );\n        }\n        emit Approval(\n            msg.sender,\n            spender,\n            _allowedFragments[msg.sender][spender]\n        );\n        return true;\n    }\n}\n",
  "sourcePath": "/home/karthi/Task Month Wise/rebase token/contracts/ReBase.sol",
  "compiler": {
    "name": "solc",
    "version": "0.8.0+commit.c7dfd78e.Emscripten.clang"
  },
  "schemaVersion": "3.4.3",
  "updatedAt": "2021-12-18T07:35:30.623Z",
  "networkType": "ethereum",
  "devdoc": {
    "details": "This is part of an implementation of the Rebase Ideal Money protocol.      Rebase is a normal ERC20 token, but its supply can be adjusted by splitting and      combining tokens proportionally across all wallets.      Rebase balances are internally represented with a hidden denomination, 'gons'.      We support splitting the currency in expansion and combining the currency on contraction by      changing the exchange rate between the hidden 'gons' and the public 'fragments'.",
    "kind": "dev",
    "methods": {
      "allowance(address,address)": {
        "details": "Function to check the amount of tokens that an owner has allowed to a spender.",
        "params": {
          "owner_": "The address which owns the funds.",
          "spender": "The address which will spend the funds."
        },
        "returns": {
          "_0": "The number of tokens still available for the spender."
        }
      },
      "approve(address,uint256)": {
        "details": "Approve the passed address to spend the specified amount of tokens on behalf of msg.sender. This method is included for ERC20 compatibility. increaseAllowance and decreaseAllowance should be used instead. Changing an allowance with this method brings the risk that someone may transfer both the old and the new allowance - if they are both greater than zero - if a transfer transaction is mined before the later approve() call is mined.",
        "params": {
          "spender": "The address which will spend the funds.",
          "value": "The amount of tokens to be spent."
        }
      },
      "balanceOf(address)": {
        "params": {
          "who": "The address to query."
        },
        "returns": {
          "_0": "The balance of the specified address."
        }
      },
      "decimals()": {
        "details": "Returns the number of decimals used to get its user representation. For example, if `decimals` equals `2`, a balance of `505` tokens should be displayed to a user as `5,05` (`505 / 10 ** 2`). Tokens usually opt for a value of 18, imitating the relationship between Ether and Wei. NOTE: This information is only used for _display_ purposes: it in no way affects any of the arithmetic of the contract, including {IERC20-balanceOf} and {IERC20-transfer}."
      },
      "decreaseAllowance(address,uint256)": {
        "details": "Decrease the amount of tokens that an owner has allowed to a spender.",
        "params": {
          "spender": "The address which will spend the funds.",
          "subtractedValue": "The amount of tokens to decrease the allowance by."
        }
      },
      "increaseAllowance(address,uint256)": {
        "details": "Increase the amount of tokens that an owner has allowed to a spender. This method should be used instead of approve() to avoid the double approval vulnerability described above.",
        "params": {
          "addedValue": "The amount of tokens to increase the allowance by.",
          "spender": "The address which will spend the funds."
        }
      },
      "name()": {
        "details": "Returns the name of the token."
      },
      "owner()": {
        "details": "Returns the address of the current owner."
      },
      "rebase(uint256,int256)": {
        "details": "Notifies Fragments contract about a new rebase cycle.",
        "params": {
          "supplyDelta": "The number of new fragment tokens to add into circulation via expansion."
        },
        "returns": {
          "_0": "The total number of fragments after the supply adjustment."
        }
      },
      "renounceOwnership()": {
        "details": "Leaves the contract without owner. It will not be possible to call `onlyOwner` functions anymore. Can only be called by the current owner. NOTE: Renouncing ownership will leave the contract without an owner, thereby removing any functionality that is only available to the owner."
      },
      "setMonetaryPolicy(address)": {
        "params": {
          "monetaryPolicy_": "The address of the monetary policy contract to use for authentication."
        }
      },
      "setRebasePaused(bool)": {
        "details": "Pauses or unpauses the execution of rebase operations.",
        "params": {
          "paused": "Pauses rebase operations if this is true."
        }
      },
      "setTokenPaused(bool)": {
        "details": "Pauses or unpauses execution of ERC-20 transactions.",
        "params": {
          "paused": "Pauses ERC-20 transactions if this is true."
        }
      },
      "symbol()": {
        "details": "Returns the symbol of the token, usually a shorter version of the name."
      },
      "totalSupply()": {
        "returns": {
          "_0": "The total number of fragments."
        }
      },
      "transfer(address,uint256)": {
        "details": "Transfer tokens to a specified address.",
        "params": {
          "to": "The address to transfer to.",
          "value": "The amount to be transferred."
        },
        "returns": {
          "_0": "True on success, false otherwise."
        }
      },
      "transferFrom(address,address,uint256)": {
        "details": "Transfer tokens from one address to another.",
        "params": {
          "from": "The address you want to send tokens from.",
          "to": "The address you want to transfer to.",
          "value": "The amount of tokens to be transferred."
        }
      },
      "transferOwnership(address)": {
        "details": "Transfers ownership of the contract to a new account (`newOwner`). Can only be called by the current owner."
      }
    },
    "title": "Rebase ERC20 token",
    "version": 1
  },
  "userdoc": {
    "kind": "user",
    "methods": {},
    "version": 1
  }
}